{
  "contractName": "Property",
  "abi": [
    {
      "inputs": [],
      "stateMutability": "nonpayable",
      "type": "constructor"
    },
    {
      "anonymous": false,
      "inputs": [
        {
          "indexed": true,
          "internalType": "uint256",
          "name": "propertyId",
          "type": "uint256"
        },
        {
          "indexed": true,
          "internalType": "address",
          "name": "buyer",
          "type": "address"
        },
        {
          "indexed": false,
          "internalType": "uint256",
          "name": "pricePaid",
          "type": "uint256"
        }
      ],
      "name": "PropertySold",
      "type": "event"
    },
    {
      "inputs": [],
      "name": "contractOwner",
      "outputs": [
        {
          "internalType": "address",
          "name": "",
          "type": "address"
        }
      ],
      "stateMutability": "view",
      "type": "function",
      "constant": true
    },
    {
      "inputs": [
        {
          "internalType": "uint256",
          "name": "",
          "type": "uint256"
        }
      ],
      "name": "propertyOwners",
      "outputs": [
        {
          "internalType": "address",
          "name": "",
          "type": "address"
        }
      ],
      "stateMutability": "view",
      "type": "function",
      "constant": true
    },
    {
      "inputs": [
        {
          "internalType": "uint256",
          "name": "",
          "type": "uint256"
        }
      ],
      "name": "propertyPrices",
      "outputs": [
        {
          "internalType": "uint256",
          "name": "",
          "type": "uint256"
        }
      ],
      "stateMutability": "view",
      "type": "function",
      "constant": true
    },
    {
      "inputs": [
        {
          "internalType": "uint256",
          "name": "propertyId",
          "type": "uint256"
        }
      ],
      "name": "buyProperty",
      "outputs": [
        {
          "internalType": "uint256",
          "name": "",
          "type": "uint256"
        }
      ],
      "stateMutability": "payable",
      "type": "function",
      "payable": true
    },
    {
      "inputs": [
        {
          "internalType": "uint256",
          "name": "propertyId",
          "type": "uint256"
        }
      ],
      "name": "getPropertyOwner",
      "outputs": [
        {
          "internalType": "address",
          "name": "",
          "type": "address"
        }
      ],
      "stateMutability": "view",
      "type": "function",
      "constant": true
    },
    {
      "inputs": [
        {
          "internalType": "uint256",
          "name": "propertyId",
          "type": "uint256"
        }
      ],
      "name": "getPropertyPrice",
      "outputs": [
        {
          "internalType": "uint256",
          "name": "",
          "type": "uint256"
        }
      ],
      "stateMutability": "view",
      "type": "function",
      "constant": true
    },
    {
      "inputs": [],
      "name": "getPropertyOwners",
      "outputs": [
        {
          "internalType": "address[16]",
          "name": "",
          "type": "address[16]"
        }
      ],
      "stateMutability": "view",
      "type": "function",
      "constant": true
    },
    {
      "inputs": [],
      "name": "getPropertyPrices",
      "outputs": [
        {
          "internalType": "uint256[16]",
          "name": "",
          "type": "uint256[16]"
        }
      ],
      "stateMutability": "view",
      "type": "function",
      "constant": true
    }
  ],
  "bytecode": "0x60806040523480156200001157600080fd5b5033602060006101000a81548173ffffffffffffffffffffffffffffffffffffffff021916908373ffffffffffffffffffffffffffffffffffffffff160217905550671bc16d674ec800006010600060108110620000745762000073620002b9565b5b0181905550670de0b6b3a764000060106001601081106200009a5762000099620002b9565b5b01819055506729a2241af62c00006010600260108110620000c057620000bf620002b9565b5b01819055506714d1120d7b1600006010600360108110620000e657620000e5620002b9565b5b01819055506722b1c8c1227a000060106004601081106200010c576200010b620002b9565b5b01819055506710a741a4627800006010600560108110620001325762000131620002b9565b5b0181905550670b1a2bc2ec5000006010600660108110620001585762000157620002b9565b5b0181905550673782dace9d90000060106007601081106200017e576200017d620002b9565b5b01819055506718fae27693b400006010600860108110620001a457620001a3620002b9565b5b0181905550671e87f85809dc00006010600960108110620001ca57620001c9620002b9565b5b01819055506706f05b59d3b200006010600a60108110620001f057620001ef620002b9565b5b01819055506730927f74c9de00006010600b60108110620002165762000215620002b9565b5b0181905550670f43fc2c04ee00006010600c601081106200023c576200023b620002b9565b5b01819055506726db992a3b1800006010600d60108110620002625762000261620002b9565b5b0181905550670c7d713b49da00006010600e60108110620002885762000287620002b9565b5b01819055506716345785d8a000006010600f60108110620002ae57620002ad620002b9565b5b0181905550620002e8565b7f4e487b7100000000000000000000000000000000000000000000000000000000600052603260045260246000fd5b610af480620002f86000396000f3fe60806040526004361061007b5760003560e01c806384fa2a491161004e57806384fa2a4914610167578063ca1694af14610192578063ce606ee0146101bd578063e34fc531146101e85761007b565b806302024fd8146100805780630789752c146100bd5780636fa830a6146100fa5780637f2af0831461012a575b600080fd5b34801561008c57600080fd5b506100a760048036038101906100a291906106ad565b610225565b6040516100b491906106e9565b60405180910390f35b3480156100c957600080fd5b506100e460048036038101906100df91906106ad565b610240565b6040516100f191906106e9565b60405180910390f35b610114600480360381019061010f91906106ad565b61025f565b60405161012191906106e9565b60405180910390f35b34801561013657600080fd5b50610151600480360381019061014c91906106ad565b6104c7565b60405161015e9190610745565b60405180910390f35b34801561017357600080fd5b5061017c6104fd565b604051610189919061080b565b60405180910390f35b34801561019e57600080fd5b506101a761057e565b6040516101b491906108d2565b60405180910390f35b3480156101c957600080fd5b506101d26105c8565b6040516101df9190610745565b60405180910390f35b3480156101f457600080fd5b5061020f600480360381019061020a91906106ad565b6105ee565b60405161021c9190610745565b60405180910390f35b6010816010811061023557600080fd5b016000915090505481565b600060108260108110610256576102556108ee565b5b01549050919050565b60008082101580156102725750600f8211155b6102b1576040517f08c379a00000000000000000000000000000000000000000000000000000000081526004016102a8906109a0565b60405180910390fd5b600073ffffffffffffffffffffffffffffffffffffffff16600083601081106102dd576102dc6108ee565b5b0160009054906101000a900473ffffffffffffffffffffffffffffffffffffffff1673ffffffffffffffffffffffffffffffffffffffff1614610355576040517f08c379a000000000000000000000000000000000000000000000000000000000815260040161034c90610a0c565b60405180910390fd5b60006010836010811061036b5761036a6108ee565b5b01549050803410156103b2576040517f08c379a00000000000000000000000000000000000000000000000000000000081526004016103a990610a9e565b60405180910390fd5b33600084601081106103c7576103c66108ee565b5b0160006101000a81548173ffffffffffffffffffffffffffffffffffffffff021916908373ffffffffffffffffffffffffffffffffffffffff160217905550602060009054906101000a900473ffffffffffffffffffffffffffffffffffffffff1673ffffffffffffffffffffffffffffffffffffffff166108fc829081150290604051600060405180830381858888f1935050505015801561046e573d6000803e3d6000fd5b503373ffffffffffffffffffffffffffffffffffffffff16837ff17a6666765db393a6218bb324c4de5cc60c9ee3b981bd102ba416effc13b895836040516104b691906106e9565b60405180910390a382915050919050565b600081601081106104d757600080fd5b016000915054906101000a900473ffffffffffffffffffffffffffffffffffffffff1681565b61050561062c565b6000601080602002604051908101604052809291908260108015610574576020028201915b8160009054906101000a900473ffffffffffffffffffffffffffffffffffffffff1673ffffffffffffffffffffffffffffffffffffffff168152602001906001019080831161052a575b5050505050905090565b61058661064f565b601080806020026040519081016040528092919082601080156105be576020028201915b8154815260200190600101908083116105aa575b5050505050905090565b602060009054906101000a900473ffffffffffffffffffffffffffffffffffffffff1681565b6000808260108110610603576106026108ee565b5b0160009054906101000a900473ffffffffffffffffffffffffffffffffffffffff169050919050565b604051806102000160405280601090602082028036833780820191505090505090565b604051806102000160405280601090602082028036833780820191505090505090565b600080fd5b6000819050919050565b61068a81610677565b811461069557600080fd5b50565b6000813590506106a781610681565b92915050565b6000602082840312156106c3576106c2610672565b5b60006106d184828501610698565b91505092915050565b6106e381610677565b82525050565b60006020820190506106fe60008301846106da565b92915050565b600073ffffffffffffffffffffffffffffffffffffffff82169050919050565b600061072f82610704565b9050919050565b61073f81610724565b82525050565b600060208201905061075a6000830184610736565b92915050565b600060109050919050565b600081905092915050565b6000819050919050565b61078981610724565b82525050565b600061079b8383610780565b60208301905092915050565b6000602082019050919050565b6107bd81610760565b6107c7818461076b565b92506107d282610776565b8060005b838110156108035781516107ea878261078f565b96506107f5836107a7565b9250506001810190506107d6565b505050505050565b60006102008201905061082160008301846107b4565b92915050565b600060109050919050565b600081905092915050565b6000819050919050565b61085081610677565b82525050565b60006108628383610847565b60208301905092915050565b6000602082019050919050565b61088481610827565b61088e8184610832565b92506108998261083d565b8060005b838110156108ca5781516108b18782610856565b96506108bc8361086e565b92505060018101905061089d565b505050505050565b6000610200820190506108e8600083018461087b565b92915050565b7f4e487b7100000000000000000000000000000000000000000000000000000000600052603260045260246000fd5b600082825260208201905092915050565b7f50726f7065727479204944206d757374206265206265747765656e203020616e60008201527f642031352e000000000000000000000000000000000000000000000000000000602082015250565b600061098a60258361091d565b91506109958261092e565b604082019050919050565b600060208201905081810360008301526109b98161097d565b9050919050565b7f50726f706572747920697320616c726561647920736f6c642e00000000000000600082015250565b60006109f660198361091d565b9150610a01826109c0565b602082019050919050565b60006020820190508181036000830152610a25816109e9565b9050919050565b7f4e6f7420656e6f7567682045746865722073656e7420666f722074686973207060008201527f726f70657274792e000000000000000000000000000000000000000000000000602082015250565b6000610a8860288361091d565b9150610a9382610a2c565b604082019050919050565b60006020820190508181036000830152610ab781610a7b565b905091905056fea2646970667358221220bc90fb2322ae7d95e80ff49802cd7068c9435e6ad7f0057770152c6c2168e7ae64736f6c63430008130033",
  "immutableReferences": {},
  "source": "// SPDX-License-Identifier: MIT\npragma solidity ^0.8.0;\n\ncontract Property {\n    // A public fixed-size array to store the address of the owner for each property.\n    // Assuming 16 properties, similar to your pets.\n    address[16] public propertyOwners;\n\n    // A public fixed-size array to store the price of each property in Wei.\n    // Wei is the smallest unit of Ether (1 Ether = 10^18 Wei).\n    uint256[16] public propertyPrices;\n\n    // The address that will receive the Ether when a property is sold.\n    // In a real application, this might be a multi-sig wallet or a more complex system.\n    // For simplicity, we'll set it to the contract deployer or a fixed address.\n    address public contractOwner;\n\n    // Event to log when a property is sold\n    event PropertySold(\n        uint256 indexed propertyId,\n        address indexed buyer,\n        uint256 pricePaid\n    );\n\n    // Constructor: Runs only once when the contract is deployed.\n    // It sets the initial owner of the contract (who receives funds)\n    // and initializes property prices.\n    constructor() {\n        contractOwner = msg.sender; // The deployer of the contract is the initial owner\n\n        // Initialize prices for 16 properties (example prices in Ether)\n        // Convert Ether to Wei: 1 ETH = 10^18 Wei\n        propertyPrices[0] = 2 ether;  // Property 0 costs 2 ETH\n        propertyPrices[1] = 1 ether;  // Property 1 costs 1 ETH\n        propertyPrices[2] = 3 ether;  // Property 2 costs 3 ETH\n        propertyPrices[3] = 1.5 ether; // Property 3 costs 1.5 ETH\n        // ... you can set prices for all 16 properties\n        // For properties not explicitly set, their price will be 0 by default.\n        // You would typically have a more robust way to manage property listings and prices.\n        propertyPrices[4] = 2.5 ether;\n        propertyPrices[5] = 1.2 ether;\n        propertyPrices[6] = 0.8 ether;\n        propertyPrices[7] = 4 ether;\n        propertyPrices[8] = 1.8 ether;\n        propertyPrices[9] = 2.2 ether;\n        propertyPrices[10] = 0.5 ether;\n        propertyPrices[11] = 3.5 ether;\n        propertyPrices[12] = 1.1 ether;\n        propertyPrices[13] = 2.8 ether;\n        propertyPrices[14] = 0.9 ether;\n        propertyPrices[15] = 1.6 ether;\n    }\n\n    /**\n     * @dev Allows a user to buy a property by its ID.\n     * @param propertyId The unique identifier of the property to buy (0-15).\n     * @return The ID of the bought property.\n     */\n    function buyProperty(uint256 propertyId) public payable returns (uint256) {\n        // Ensure the provided propertyId is within the valid range (0 to 15).\n        require(propertyId >= 0 && propertyId <= 15, \"Property ID must be between 0 and 15.\");\n\n        // Ensure the property is not already owned.\n        require(propertyOwners[propertyId] == address(0), \"Property is already sold.\");\n\n        // Get the required price for this property.\n        uint256 requiredPrice = propertyPrices[propertyId];\n\n        // Ensure the sender has sent enough Ether.\n        require(msg.value >= requiredPrice, \"Not enough Ether sent for this property.\");\n\n        // Assign the address of the transaction sender (msg.sender) as the new owner.\n        propertyOwners[propertyId] = msg.sender;\n\n        // Transfer the exact required amount to the contract owner.\n        // If msg.value > requiredPrice, the excess Ether is sent back to the buyer automatically\n        // by the EVM if the function doesn't explicitly handle it.\n        // For clarity, we'll explicitly handle sending the exact amount to the contract owner.\n        payable(contractOwner).transfer(requiredPrice);\n\n        // Emit an event to log the sale.\n        emit PropertySold(propertyId, msg.sender, requiredPrice);\n\n        // Return the propertyId to confirm the purchase.\n        return propertyId;\n    }\n\n    /**\n     * @dev Retrieves the owner of a specific property.\n     * @param propertyId The ID of the property.\n     * @return The address of the property owner.\n     */\n    function getPropertyOwner(uint256 propertyId) public view returns (address) {\n        return propertyOwners[propertyId];\n    }\n\n    /**\n     * @dev Retrieves the price of a specific property.\n     * @param propertyId The ID of the property.\n     * @return The price of the property in Wei.\n     */\n    function getPropertyPrice(uint256 propertyId) public view returns (uint256) {\n        return propertyPrices[propertyId];\n    }\n\n    /**\n     * @dev Retrieves the list of all property owners.\n     * This is a view function, meaning it does not modify the contract's state\n     * and can be called without incurring gas costs.\n     * @return A fixed-size array containing the addresses of all property owners.\n     * An address of 0x0...0 indicates that the property at that index is not sold.\n     */\n    function getPropertyOwners() public view returns (address[16] memory) {\n        return propertyOwners;\n    }\n\n    /**\n     * @dev Retrieves the list of all property prices.\n     * This is a view function.\n     * @return A fixed-size array containing the prices of all properties in Wei.\n     */\n    function getPropertyPrices() public view returns (uint256[16] memory) {\n        return propertyPrices;\n    }\n}",
  "sourcePath": "/Users/thanushkawickramarachchi/Desktop/yoobee/Semester 2/5 Blockchain and decentralized digital identity - MSE804 - 15 credits/github proj/ClassProj/property-selling/contracts/Property.sol",
  "compiler": {
    "name": "solc",
    "version": "0.8.19+commit.7dd6d404.Emscripten.clang"
  },
  "schemaVersion": "3.4.16",
  "updatedAt": "2025-07-08T03:14:40.328Z",
  "networkType": "ethereum",
  "devdoc": {
    "kind": "dev",
    "methods": {
      "buyProperty(uint256)": {
        "details": "Allows a user to buy a property by its ID.",
        "params": {
          "propertyId": "The unique identifier of the property to buy (0-15)."
        },
        "returns": {
          "_0": "The ID of the bought property."
        }
      },
      "getPropertyOwner(uint256)": {
        "details": "Retrieves the owner of a specific property.",
        "params": {
          "propertyId": "The ID of the property."
        },
        "returns": {
          "_0": "The address of the property owner."
        }
      },
      "getPropertyOwners()": {
        "details": "Retrieves the list of all property owners. This is a view function, meaning it does not modify the contract's state and can be called without incurring gas costs.",
        "returns": {
          "_0": "A fixed-size array containing the addresses of all property owners. An address of 0x0...0 indicates that the property at that index is not sold."
        }
      },
      "getPropertyPrice(uint256)": {
        "details": "Retrieves the price of a specific property.",
        "params": {
          "propertyId": "The ID of the property."
        },
        "returns": {
          "_0": "The price of the property in Wei."
        }
      },
      "getPropertyPrices()": {
        "details": "Retrieves the list of all property prices. This is a view function.",
        "returns": {
          "_0": "A fixed-size array containing the prices of all properties in Wei."
        }
      }
    },
    "version": 1
  },
  "userdoc": {
    "kind": "user",
    "methods": {},
    "version": 1
  }
}